{
  "_format": "hh-sol-artifact-1",
  "contractName": "SocialMedia",
  "sourceName": "contracts/SocialMedia.sol",
  "abi": [
    {
      "anonymous": false,
      "inputs": [
        {
          "indexed": false,
          "internalType": "uint256",
          "name": "postId",
          "type": "uint256"
        },
        {
          "indexed": false,
          "internalType": "address",
          "name": "author",
          "type": "address"
        },
        {
          "indexed": false,
          "internalType": "string",
          "name": "content",
          "type": "string"
        },
        {
          "indexed": false,
          "internalType": "uint256",
          "name": "timestamp",
          "type": "uint256"
        }
      ],
      "name": "CommentAdded",
      "type": "event"
    },
    {
      "anonymous": false,
      "inputs": [
        {
          "indexed": false,
          "internalType": "address",
          "name": "follower",
          "type": "address"
        },
        {
          "indexed": false,
          "internalType": "address",
          "name": "followed",
          "type": "address"
        }
      ],
      "name": "Followed",
      "type": "event"
    },
    {
      "anonymous": false,
      "inputs": [
        {
          "indexed": false,
          "internalType": "uint256",
          "name": "messageId",
          "type": "uint256"
        },
        {
          "indexed": false,
          "internalType": "address",
          "name": "reader",
          "type": "address"
        }
      ],
      "name": "MessageRead",
      "type": "event"
    },
    {
      "anonymous": false,
      "inputs": [
        {
          "indexed": false,
          "internalType": "uint256",
          "name": "messageId",
          "type": "uint256"
        },
        {
          "indexed": false,
          "internalType": "address",
          "name": "sender",
          "type": "address"
        },
        {
          "indexed": false,
          "internalType": "address",
          "name": "receiver",
          "type": "address"
        },
        {
          "indexed": false,
          "internalType": "uint256",
          "name": "timestamp",
          "type": "uint256"
        }
      ],
      "name": "MessageSent",
      "type": "event"
    },
    {
      "anonymous": false,
      "inputs": [
        {
          "indexed": true,
          "internalType": "address",
          "name": "previousOwner",
          "type": "address"
        },
        {
          "indexed": true,
          "internalType": "address",
          "name": "newOwner",
          "type": "address"
        }
      ],
      "name": "OwnershipTransferred",
      "type": "event"
    },
    {
      "anonymous": false,
      "inputs": [
        {
          "indexed": false,
          "internalType": "uint256",
          "name": "id",
          "type": "uint256"
        },
        {
          "indexed": false,
          "internalType": "address",
          "name": "author",
          "type": "address"
        },
        {
          "indexed": false,
          "internalType": "string",
          "name": "content",
          "type": "string"
        },
        {
          "indexed": false,
          "internalType": "uint256",
          "name": "timestamp",
          "type": "uint256"
        }
      ],
      "name": "PostCreated",
      "type": "event"
    },
    {
      "anonymous": false,
      "inputs": [
        {
          "indexed": false,
          "internalType": "uint256",
          "name": "postId",
          "type": "uint256"
        },
        {
          "indexed": false,
          "internalType": "address",
          "name": "user",
          "type": "address"
        }
      ],
      "name": "PostLiked",
      "type": "event"
    },
    {
      "anonymous": false,
      "inputs": [
        {
          "indexed": false,
          "internalType": "uint256",
          "name": "postId",
          "type": "uint256"
        },
        {
          "indexed": false,
          "internalType": "address",
          "name": "user",
          "type": "address"
        }
      ],
      "name": "PostShared",
      "type": "event"
    },
    {
      "anonymous": false,
      "inputs": [
        {
          "indexed": false,
          "internalType": "address",
          "name": "from",
          "type": "address"
        },
        {
          "indexed": false,
          "internalType": "address",
          "name": "to",
          "type": "address"
        },
        {
          "indexed": false,
          "internalType": "uint256",
          "name": "postId",
          "type": "uint256"
        },
        {
          "indexed": false,
          "internalType": "uint256",
          "name": "amount",
          "type": "uint256"
        }
      ],
      "name": "RewardSent",
      "type": "event"
    },
    {
      "anonymous": false,
      "inputs": [
        {
          "indexed": false,
          "internalType": "address",
          "name": "follower",
          "type": "address"
        },
        {
          "indexed": false,
          "internalType": "address",
          "name": "followed",
          "type": "address"
        }
      ],
      "name": "Unfollowed",
      "type": "event"
    },
    {
      "anonymous": false,
      "inputs": [
        {
          "indexed": false,
          "internalType": "uint256",
          "name": "id",
          "type": "uint256"
        },
        {
          "indexed": false,
          "internalType": "string",
          "name": "username",
          "type": "string"
        },
        {
          "indexed": false,
          "internalType": "address",
          "name": "userAddress",
          "type": "address"
        }
      ],
      "name": "UserCreated",
      "type": "event"
    },
    {
      "inputs": [
        {
          "internalType": "uint256",
          "name": "_postId",
          "type": "uint256"
        },
        {
          "internalType": "string",
          "name": "_content",
          "type": "string"
        }
      ],
      "name": "addComment",
      "outputs": [],
      "stateMutability": "nonpayable",
      "type": "function"
    },
    {
      "inputs": [
        {
          "internalType": "string",
          "name": "",
          "type": "string"
        }
      ],
      "name": "addressesByUsername",
      "outputs": [
        {
          "internalType": "address",
          "name": "",
          "type": "address"
        }
      ],
      "stateMutability": "view",
      "type": "function"
    },
    {
      "inputs": [
        {
          "internalType": "address",
          "name": "_user1",
          "type": "address"
        },
        {
          "internalType": "address",
          "name": "_user2",
          "type": "address"
        }
      ],
      "name": "canChat",
      "outputs": [
        {
          "internalType": "bool",
          "name": "",
          "type": "bool"
        }
      ],
      "stateMutability": "view",
      "type": "function"
    },
    {
      "inputs": [
        {
          "internalType": "address",
          "name": "",
          "type": "address"
        },
        {
          "internalType": "address",
          "name": "",
          "type": "address"
        },
        {
          "internalType": "uint256",
          "name": "",
          "type": "uint256"
        }
      ],
      "name": "chatHistory",
      "outputs": [
        {
          "internalType": "uint256",
          "name": "",
          "type": "uint256"
        }
      ],
      "stateMutability": "view",
      "type": "function"
    },
    {
      "inputs": [
        {
          "internalType": "string",
          "name": "_content",
          "type": "string"
        },
        {
          "internalType": "string",
          "name": "_mediaHash",
          "type": "string"
        }
      ],
      "name": "createPost",
      "outputs": [],
      "stateMutability": "nonpayable",
      "type": "function"
    },
    {
      "inputs": [
        {
          "internalType": "string",
          "name": "_username",
          "type": "string"
        },
        {
          "internalType": "string",
          "name": "_bio",
          "type": "string"
        },
        {
          "internalType": "string",
          "name": "_profileImageHash",
          "type": "string"
        }
      ],
      "name": "createUser",
      "outputs": [],
      "stateMutability": "nonpayable",
      "type": "function"
    },
    {
      "inputs": [
        {
          "internalType": "address",
          "name": "_userToFollow",
          "type": "address"
        }
      ],
      "name": "followUser",
      "outputs": [],
      "stateMutability": "nonpayable",
      "type": "function"
    },
    {
      "inputs": [
        {
          "internalType": "address",
          "name": "",
          "type": "address"
        },
        {
          "internalType": "uint256",
          "name": "",
          "type": "uint256"
        }
      ],
      "name": "followers",
      "outputs": [
        {
          "internalType": "address",
          "name": "",
          "type": "address"
        }
      ],
      "stateMutability": "view",
      "type": "function"
    },
    {
      "inputs": [
        {
          "internalType": "address",
          "name": "",
          "type": "address"
        },
        {
          "internalType": "address",
          "name": "",
          "type": "address"
        }
      ],
      "name": "following",
      "outputs": [
        {
          "internalType": "bool",
          "name": "",
          "type": "bool"
        }
      ],
      "stateMutability": "view",
      "type": "function"
    },
    {
      "inputs": [
        {
          "internalType": "address",
          "name": "",
          "type": "address"
        },
        {
          "internalType": "uint256",
          "name": "",
          "type": "uint256"
        }
      ],
      "name": "followings",
      "outputs": [
        {
          "internalType": "address",
          "name": "",
          "type": "address"
        }
      ],
      "stateMutability": "view",
      "type": "function"
    },
    {
      "inputs": [
        {
          "internalType": "address",
          "name": "_user1",
          "type": "address"
        },
        {
          "internalType": "address",
          "name": "_user2",
          "type": "address"
        }
      ],
      "name": "getChatHistory",
      "outputs": [
        {
          "internalType": "uint256[]",
          "name": "",
          "type": "uint256[]"
        }
      ],
      "stateMutability": "view",
      "type": "function"
    },
    {
      "inputs": [
        {
          "internalType": "address",
          "name": "_user",
          "type": "address"
        }
      ],
      "name": "getFollowers",
      "outputs": [
        {
          "internalType": "address[]",
          "name": "",
          "type": "address[]"
        }
      ],
      "stateMutability": "view",
      "type": "function"
    },
    {
      "inputs": [
        {
          "internalType": "address",
          "name": "_user",
          "type": "address"
        }
      ],
      "name": "getFollowing",
      "outputs": [
        {
          "internalType": "address[]",
          "name": "",
          "type": "address[]"
        }
      ],
      "stateMutability": "view",
      "type": "function"
    },
    {
      "inputs": [
        {
          "internalType": "uint256",
          "name": "_messageId",
          "type": "uint256"
        }
      ],
      "name": "getMessageById",
      "outputs": [
        {
          "components": [
            {
              "internalType": "uint256",
              "name": "id",
              "type": "uint256"
            },
            {
              "internalType": "address",
              "name": "sender",
              "type": "address"
            },
            {
              "internalType": "address",
              "name": "receiver",
              "type": "address"
            },
            {
              "internalType": "string",
              "name": "content",
              "type": "string"
            },
            {
              "internalType": "uint256",
              "name": "timestamp",
              "type": "uint256"
            },
            {
              "internalType": "bool",
              "name": "isRead",
              "type": "bool"
            }
          ],
          "internalType": "struct SocialMedia.Message",
          "name": "",
          "type": "tuple"
        }
      ],
      "stateMutability": "view",
      "type": "function"
    },
    {
      "inputs": [
        {
          "internalType": "uint256",
          "name": "_postId",
          "type": "uint256"
        }
      ],
      "name": "getPostComments",
      "outputs": [
        {
          "components": [
            {
              "internalType": "uint256",
              "name": "id",
              "type": "uint256"
            },
            {
              "internalType": "uint256",
              "name": "postId",
              "type": "uint256"
            },
            {
              "internalType": "address",
              "name": "author",
              "type": "address"
            },
            {
              "internalType": "string",
              "name": "content",
              "type": "string"
            },
            {
              "internalType": "uint256",
              "name": "timestamp",
              "type": "uint256"
            }
          ],
          "internalType": "struct SocialMedia.Comment[]",
          "name": "",
          "type": "tuple[]"
        }
      ],
      "stateMutability": "view",
      "type": "function"
    },
    {
      "inputs": [
        {
          "internalType": "address",
          "name": "_user",
          "type": "address"
        }
      ],
      "name": "getRecentChats",
      "outputs": [
        {
          "internalType": "address[]",
          "name": "",
          "type": "address[]"
        }
      ],
      "stateMutability": "view",
      "type": "function"
    },
    {
      "inputs": [],
      "name": "getTotalPosts",
      "outputs": [
        {
          "internalType": "uint256",
          "name": "",
          "type": "uint256"
        }
      ],
      "stateMutability": "view",
      "type": "function"
    },
    {
      "inputs": [
        {
          "internalType": "address",
          "name": "_user",
          "type": "address"
        }
      ],
      "name": "getTotalUnreadMessages",
      "outputs": [
        {
          "internalType": "uint256",
          "name": "",
          "type": "uint256"
        }
      ],
      "stateMutability": "view",
      "type": "function"
    },
    {
      "inputs": [],
      "name": "getTotalUsers",
      "outputs": [
        {
          "internalType": "uint256",
          "name": "",
          "type": "uint256"
        }
      ],
      "stateMutability": "view",
      "type": "function"
    },
    {
      "inputs": [
        {
          "internalType": "address",
          "name": "_user",
          "type": "address"
        },
        {
          "internalType": "address",
          "name": "_sender",
          "type": "address"
        }
      ],
      "name": "getUnreadMessageCount",
      "outputs": [
        {
          "internalType": "uint256",
          "name": "",
          "type": "uint256"
        }
      ],
      "stateMutability": "view",
      "type": "function"
    },
    {
      "inputs": [
        {
          "internalType": "address",
          "name": "_user",
          "type": "address"
        }
      ],
      "name": "getUserPostIds",
      "outputs": [
        {
          "internalType": "uint256[]",
          "name": "",
          "type": "uint256[]"
        }
      ],
      "stateMutability": "view",
      "type": "function"
    },
    {
      "inputs": [
        {
          "internalType": "address",
          "name": "_user",
          "type": "address"
        },
        {
          "internalType": "uint256",
          "name": "_postId",
          "type": "uint256"
        }
      ],
      "name": "hasLiked",
      "outputs": [
        {
          "internalType": "bool",
          "name": "",
          "type": "bool"
        }
      ],
      "stateMutability": "view",
      "type": "function"
    },
    {
      "inputs": [
        {
          "internalType": "address",
          "name": "_user",
          "type": "address"
        },
        {
          "internalType": "uint256",
          "name": "_postId",
          "type": "uint256"
        }
      ],
      "name": "hasShared",
      "outputs": [
        {
          "internalType": "bool",
          "name": "",
          "type": "bool"
        }
      ],
      "stateMutability": "view",
      "type": "function"
    },
    {
      "inputs": [
        {
          "internalType": "address",
          "name": "_follower",
          "type": "address"
        },
        {
          "internalType": "address",
          "name": "_followed",
          "type": "address"
        }
      ],
      "name": "isFollowing",
      "outputs": [
        {
          "internalType": "bool",
          "name": "",
          "type": "bool"
        }
      ],
      "stateMutability": "view",
      "type": "function"
    },
    {
      "inputs": [
        {
          "internalType": "uint256",
          "name": "_postId",
          "type": "uint256"
        }
      ],
      "name": "likePost",
      "outputs": [],
      "stateMutability": "nonpayable",
      "type": "function"
    },
    {
      "inputs": [
        {
          "internalType": "address",
          "name": "_sender",
          "type": "address"
        }
      ],
      "name": "markAllMessagesAsRead",
      "outputs": [],
      "stateMutability": "nonpayable",
      "type": "function"
    },
    {
      "inputs": [
        {
          "internalType": "uint256",
          "name": "_messageId",
          "type": "uint256"
        }
      ],
      "name": "markMessageAsRead",
      "outputs": [],
      "stateMutability": "nonpayable",
      "type": "function"
    },
    {
      "inputs": [
        {
          "internalType": "uint256",
          "name": "",
          "type": "uint256"
        }
      ],
      "name": "messages",
      "outputs": [
        {
          "internalType": "uint256",
          "name": "id",
          "type": "uint256"
        },
        {
          "internalType": "address",
          "name": "sender",
          "type": "address"
        },
        {
          "internalType": "address",
          "name": "receiver",
          "type": "address"
        },
        {
          "internalType": "string",
          "name": "content",
          "type": "string"
        },
        {
          "internalType": "uint256",
          "name": "timestamp",
          "type": "uint256"
        },
        {
          "internalType": "bool",
          "name": "isRead",
          "type": "bool"
        }
      ],
      "stateMutability": "view",
      "type": "function"
    },
    {
      "inputs": [],
      "name": "owner",
      "outputs": [
        {
          "internalType": "address",
          "name": "",
          "type": "address"
        }
      ],
      "stateMutability": "view",
      "type": "function"
    },
    {
      "inputs": [
        {
          "internalType": "uint256",
          "name": "",
          "type": "uint256"
        },
        {
          "internalType": "uint256",
          "name": "",
          "type": "uint256"
        }
      ],
      "name": "postComments",
      "outputs": [
        {
          "internalType": "uint256",
          "name": "id",
          "type": "uint256"
        },
        {
          "internalType": "uint256",
          "name": "postId",
          "type": "uint256"
        },
        {
          "internalType": "address",
          "name": "author",
          "type": "address"
        },
        {
          "internalType": "string",
          "name": "content",
          "type": "string"
        },
        {
          "internalType": "uint256",
          "name": "timestamp",
          "type": "uint256"
        }
      ],
      "stateMutability": "view",
      "type": "function"
    },
    {
      "inputs": [
        {
          "internalType": "address",
          "name": "",
          "type": "address"
        },
        {
          "internalType": "uint256",
          "name": "",
          "type": "uint256"
        }
      ],
      "name": "postLikes",
      "outputs": [
        {
          "internalType": "bool",
          "name": "",
          "type": "bool"
        }
      ],
      "stateMutability": "view",
      "type": "function"
    },
    {
      "inputs": [
        {
          "internalType": "address",
          "name": "",
          "type": "address"
        },
        {
          "internalType": "uint256",
          "name": "",
          "type": "uint256"
        }
      ],
      "name": "postShares",
      "outputs": [
        {
          "internalType": "bool",
          "name": "",
          "type": "bool"
        }
      ],
      "stateMutability": "view",
      "type": "function"
    },
    {
      "inputs": [
        {
          "internalType": "uint256",
          "name": "",
          "type": "uint256"
        }
      ],
      "name": "posts",
      "outputs": [
        {
          "internalType": "uint256",
          "name": "id",
          "type": "uint256"
        },
        {
          "internalType": "address",
          "name": "author",
          "type": "address"
        },
        {
          "internalType": "string",
          "name": "content",
          "type": "string"
        },
        {
          "internalType": "string",
          "name": "mediaHash",
          "type": "string"
        },
        {
          "internalType": "uint256",
          "name": "likeCount",
          "type": "uint256"
        },
        {
          "internalType": "uint256",
          "name": "commentCount",
          "type": "uint256"
        },
        {
          "internalType": "uint256",
          "name": "shareCount",
          "type": "uint256"
        },
        {
          "internalType": "uint256",
          "name": "rewardAmount",
          "type": "uint256"
        },
        {
          "internalType": "uint256",
          "name": "timestamp",
          "type": "uint256"
        },
        {
          "internalType": "bool",
          "name": "exists",
          "type": "bool"
        }
      ],
      "stateMutability": "view",
      "type": "function"
    },
    {
      "inputs": [
        {
          "internalType": "address",
          "name": "",
          "type": "address"
        },
        {
          "internalType": "uint256",
          "name": "",
          "type": "uint256"
        }
      ],
      "name": "recentChats",
      "outputs": [
        {
          "internalType": "address",
          "name": "",
          "type": "address"
        }
      ],
      "stateMutability": "view",
      "type": "function"
    },
    {
      "inputs": [],
      "name": "renounceOwnership",
      "outputs": [],
      "stateMutability": "nonpayable",
      "type": "function"
    },
    {
      "inputs": [
        {
          "internalType": "string",
          "name": "_username",
          "type": "string"
        }
      ],
      "name": "searchUserByUsername",
      "outputs": [
        {
          "components": [
            {
              "internalType": "uint256",
              "name": "id",
              "type": "uint256"
            },
            {
              "internalType": "string",
              "name": "username",
              "type": "string"
            },
            {
              "internalType": "string",
              "name": "bio",
              "type": "string"
            },
            {
              "internalType": "string",
              "name": "profileImageHash",
              "type": "string"
            },
            {
              "internalType": "address",
              "name": "userAddress",
              "type": "address"
            },
            {
              "internalType": "uint256",
              "name": "followerCount",
              "type": "uint256"
            },
            {
              "internalType": "uint256",
              "name": "followingCount",
              "type": "uint256"
            },
            {
              "internalType": "uint256",
              "name": "rewardsBalance",
              "type": "uint256"
            },
            {
              "internalType": "bool",
              "name": "exists",
              "type": "bool"
            }
          ],
          "internalType": "struct SocialMedia.User",
          "name": "",
          "type": "tuple"
        }
      ],
      "stateMutability": "view",
      "type": "function"
    },
    {
      "inputs": [
        {
          "internalType": "address",
          "name": "_receiver",
          "type": "address"
        },
        {
          "internalType": "string",
          "name": "_content",
          "type": "string"
        }
      ],
      "name": "sendMessage",
      "outputs": [],
      "stateMutability": "nonpayable",
      "type": "function"
    },
    {
      "inputs": [
        {
          "internalType": "uint256",
          "name": "_postId",
          "type": "uint256"
        }
      ],
      "name": "sendReward",
      "outputs": [],
      "stateMutability": "payable",
      "type": "function"
    },
    {
      "inputs": [
        {
          "internalType": "uint256",
          "name": "_postId",
          "type": "uint256"
        }
      ],
      "name": "sharePost",
      "outputs": [],
      "stateMutability": "nonpayable",
      "type": "function"
    },
    {
      "inputs": [
        {
          "internalType": "address",
          "name": "newOwner",
          "type": "address"
        }
      ],
      "name": "transferOwnership",
      "outputs": [],
      "stateMutability": "nonpayable",
      "type": "function"
    },
    {
      "inputs": [
        {
          "internalType": "address",
          "name": "_userToUnfollow",
          "type": "address"
        }
      ],
      "name": "unfollowUser",
      "outputs": [],
      "stateMutability": "nonpayable",
      "type": "function"
    },
    {
      "inputs": [
        {
          "internalType": "uint256",
          "name": "_postId",
          "type": "uint256"
        }
      ],
      "name": "unlikePost",
      "outputs": [],
      "stateMutability": "nonpayable",
      "type": "function"
    },
    {
      "inputs": [
        {
          "internalType": "address",
          "name": "",
          "type": "address"
        },
        {
          "internalType": "address",
          "name": "",
          "type": "address"
        }
      ],
      "name": "unreadMessageCounts",
      "outputs": [
        {
          "internalType": "uint256",
          "name": "",
          "type": "uint256"
        }
      ],
      "stateMutability": "view",
      "type": "function"
    },
    {
      "inputs": [
        {
          "internalType": "address",
          "name": "",
          "type": "address"
        },
        {
          "internalType": "uint256",
          "name": "",
          "type": "uint256"
        }
      ],
      "name": "userPosts",
      "outputs": [
        {
          "internalType": "uint256",
          "name": "",
          "type": "uint256"
        }
      ],
      "stateMutability": "view",
      "type": "function"
    },
    {
      "inputs": [
        {
          "internalType": "address",
          "name": "",
          "type": "address"
        }
      ],
      "name": "usersByAddress",
      "outputs": [
        {
          "internalType": "uint256",
          "name": "id",
          "type": "uint256"
        },
        {
          "internalType": "string",
          "name": "username",
          "type": "string"
        },
        {
          "internalType": "string",
          "name": "bio",
          "type": "string"
        },
        {
          "internalType": "string",
          "name": "profileImageHash",
          "type": "string"
        },
        {
          "internalType": "address",
          "name": "userAddress",
          "type": "address"
        },
        {
          "internalType": "uint256",
          "name": "followerCount",
          "type": "uint256"
        },
        {
          "internalType": "uint256",
          "name": "followingCount",
          "type": "uint256"
        },
        {
          "internalType": "uint256",
          "name": "rewardsBalance",
          "type": "uint256"
        },
        {
          "internalType": "bool",
          "name": "exists",
          "type": "bool"
        }
      ],
      "stateMutability": "view",
      "type": "function"
    },
    {
      "inputs": [
        {
          "internalType": "uint256",
          "name": "",
          "type": "uint256"
        }
      ],
      "name": "usersById",
      "outputs": [
        {
          "internalType": "uint256",
          "name": "id",
          "type": "uint256"
        },
        {
          "internalType": "string",
          "name": "username",
          "type": "string"
        },
        {
          "internalType": "string",
          "name": "bio",
          "type": "string"
        },
        {
          "internalType": "string",
          "name": "profileImageHash",
          "type": "string"
        },
        {
          "internalType": "address",
          "name": "userAddress",
          "type": "address"
        },
        {
          "internalType": "uint256",
          "name": "followerCount",
          "type": "uint256"
        },
        {
          "internalType": "uint256",
          "name": "followingCount",
          "type": "uint256"
        },
        {
          "internalType": "uint256",
          "name": "rewardsBalance",
          "type": "uint256"
        },
        {
          "internalType": "bool",
          "name": "exists",
          "type": "bool"
        }
      ],
      "stateMutability": "view",
      "type": "function"
    }
  ],
  "bytecode": "0x60806040523480156200001157600080fd5b506200001d3362000023565b62000073565b600080546001600160a01b038381166001600160a01b0319831681178455604051919092169283917f8be0079c531659141344cd1fd0a4f28419497f9722a3daafe3b4186f6b6457e09190a35050565b6140c180620000836000396000f3fe60806040526004361061027d5760003560e01c80638da5cb5b1161014f578063ca2ee78b116100c1578063ebd009d31161007a578063ebd009d314610910578063ec25bbe914610930578063f107cfcb1461095d578063f2fde38b1461097d578063f5d763201461099d578063fa188de9146109bd57600080fd5b8063ca2ee78b14610828578063ce9ae00114610848578063d524ff7614610883578063d8236dff146108b0578063de6f24bb146108d0578063dedf1b4a146108f057600080fd5b8063a70806f711610113578063a70806f714610775578063aa7e568314610795578063ab75043d146107b5578063c1f10127146107d5578063c2fe2022146107f5578063c78b6dea1461081557600080fd5b80638da5cb5b146106a157806399ec3a42146106bf5780639be572f614610708578063a024e1c31461071d578063a67f454f1461073d57600080fd5b80635193c94c116101f35780636bf693c4116101ac5780636bf693c4146105ab578063715018a6146105cb578063725009d3146105e05780637a2a1b51146106005780638064d1491461064657806385f4577c1461066657600080fd5b80635193c94c1461049157806359ae069b146104c25780635eec2f00146104e25780635fe226b41461051d5780636043269e1461053257806365d5cecb1461055257600080fd5b806319e771681161024557806319e77168146103775780632b5e82bf146103a4578063356c14d3146103d4578063392338f5146103f4578063426b5382146104165780634c6668a31461044b57600080fd5b806303c33b3a146102825780630b1e7f83146102b55780630d80fefd146102eb57806312ec90951461031d578063179026011461034a575b600080fd5b34801561028e57600080fd5b506102a261029d366004613677565b6109dd565b6040519081526020015b60405180910390f35b3480156102c157600080fd5b506102d56102d03660046136b3565b610a1b565b6040516102ac9a9998979695949392919061371c565b3480156102f757600080fd5b5061030b6103063660046136b3565b610b88565b6040516102ac96959493929190613794565b34801561032957600080fd5b5061033d6103383660046137e0565b610c57565b6040516102ac91906137fb565b34801561035657600080fd5b5061036a6103653660046136b3565b610ccd565b6040516102ac9190613848565b34801561038357600080fd5b506103976103923660046137e0565b610e57565b6040516102ac91906138b2565b3480156103b057600080fd5b506103c46103bf3660046138ea565b610ec2565b60405190151581526020016102ac565b3480156103e057600080fd5b506103c46103ef366004613914565b610ef0565b34801561040057600080fd5b5061041461040f3660046139ea565b610f52565b005b34801561042257600080fd5b506104366104313660046136b3565b611109565b6040516102ac99989796959493929190613a4e565b34801561045757600080fd5b506103c46104663660046138ea565b6001600160a01b03919091166000908152600a60209081526040808320938352929052205460ff1690565b34801561049d57600080fd5b506104b16104ac366004613ac9565b6112f6565b6040516102ac959493929190613aeb565b3480156104ce57600080fd5b506104146104dd366004613b2a565b6113d7565b3480156104ee57600080fd5b506103c46104fd3660046138ea565b600b60209081526000928352604080842090915290825290205460ff1681565b34801561052957600080fd5b506102a26116f8565b34801561053e57600080fd5b506102a261054d3660046137e0565b611708565b34801561055e57600080fd5b5061059361056d366004613bb2565b80516020818301810180516005825292820191909301209152546001600160a01b031681565b6040516001600160a01b0390911681526020016102ac565b3480156105b757600080fd5b506104366105c63660046137e0565b611807565b3480156105d757600080fd5b50610414611829565b3480156105ec57600080fd5b506104146105fb3660046136b3565b61183d565b34801561060c57600080fd5b506102a261061b366004613914565b6001600160a01b03918216600090815260126020908152604080832093909416825291909152205490565b34801561065257600080fd5b506102a26106613660046138ea565b61197c565b34801561067257600080fd5b506103c46106813660046138ea565b600a60209081526000928352604080842090915290825290205460ff1681565b3480156106ad57600080fd5b506000546001600160a01b0316610593565b3480156106cb57600080fd5b506103c46106da366004613914565b6001600160a01b039182166000908152600c6020908152604080832093909416825291909152205460ff1690565b34801561071457600080fd5b506102a26119ad565b34801561072957600080fd5b506105936107383660046138ea565b6119b8565b34801561074957600080fd5b506102a2610758366004613914565b601260209081526000928352604080842090915290825290205481565b34801561078157600080fd5b506104146107903660046137e0565b6119f0565b3480156107a157600080fd5b506104146107b0366004613bef565b611c88565b3480156107c157600080fd5b506103976107d0366004613914565b611def565b3480156107e157600080fd5b506104146107f03660046136b3565b611e68565b34801561080157600080fd5b5061033d6108103660046137e0565b611fd7565b6104146108233660046136b3565b61204b565b34801561083457600080fd5b506104146108433660046137e0565b612221565b34801561085457600080fd5b506103c4610863366004613914565b600c60209081526000928352604080842090915290825290205460ff1681565b34801561088f57600080fd5b506108a361089e3660046136b3565b612412565b6040516102ac9190613c2c565b3480156108bc57600080fd5b5061033d6108cb3660046137e0565b61254b565b3480156108dc57600080fd5b506104146108eb366004613ccf565b6125bf565b3480156108fc57600080fd5b5061059361090b3660046138ea565b6128b2565b34801561091c57600080fd5b5061059361092b3660046138ea565b6128ce565b34801561093c57600080fd5b5061095061094b366004613bb2565b6128ea565b6040516102ac9190613d07565b34801561096957600080fd5b506104146109783660046137e0565b612bdb565b34801561098957600080fd5b506104146109983660046137e0565b612fa9565b3480156109a957600080fd5b506104146109b83660046136b3565b613022565b3480156109c957600080fd5b506104146109d83660046136b3565b61315b565b60106020528260005260406000206020528160005260406000208181548110610a0557600080fd5b9060005260206000200160009250925050505481565b60076020526000908152604090208054600182015460028301805492936001600160a01b0390921692610a4d90613dc9565b80601f0160208091040260200160405190810160405280929190818152602001828054610a7990613dc9565b8015610ac65780601f10610a9b57610100808354040283529160200191610ac6565b820191906000526020600020905b815481529060010190602001808311610aa957829003601f168201915b505050505090806003018054610adb90613dc9565b80601f0160208091040260200160405190810160405280929190818152602001828054610b0790613dc9565b8015610b545780601f10610b2957610100808354040283529160200191610b54565b820191906000526020600020905b815481529060010190602001808311610b3757829003601f168201915b5050506004840154600585015460068601546007870154600888015460099098015496979396929550909350919060ff168a565b600f60205260009081526040902080546001820154600283015460038401805493946001600160a01b03938416949390921692610bc490613dc9565b80601f0160208091040260200160405190810160405280929190818152602001828054610bf090613dc9565b8015610c3d5780601f10610c1257610100808354040283529160200191610c3d565b820191906000526020600020905b815481529060010190602001808311610c2057829003601f168201915b50505050600483015460059093015491929160ff16905086565b6001600160a01b038116600090815260116020908152604091829020805483518184028101840190945280845260609392830182828015610cc157602002820191906000526020600020905b81546001600160a01b03168152600190910190602001808311610ca3575b50505050509050919050565b6040805160c0810182526000808252602082018190529181018290526060808201526080810182905260a08101919091526000828152600f60205260409020548214610d595760405162461bcd60e51b815260206004820152601660248201527513595cdcd859d948191bd95cc81b9bdd08195e1a5cdd60521b60448201526064015b60405180910390fd5b6000828152600f6020908152604091829020825160c0810184528154815260018201546001600160a01b0390811693820193909352600282015490921692820192909252600382018054919291606084019190610db590613dc9565b80601f0160208091040260200160405190810160405280929190818152602001828054610de190613dc9565b8015610e2e5780601f10610e0357610100808354040283529160200191610e2e565b820191906000526020600020905b815481529060010190602001808311610e1157829003601f168201915b50505091835250506004820154602082015260059091015460ff16151560409091015292915050565b6001600160a01b038116600090815260086020908152604091829020805483518184028101840190945280845260609392830182828015610cc157602002820191906000526020600020905b815481526020019060010190808311610ea35750505050509050919050565b6001600160a01b0382166000908152600b6020908152604080832084845290915290205460ff165b92915050565b6001600160a01b038083166000908152600c6020908152604080832093851683529290529081205460ff1680610f4b57506001600160a01b038083166000908152600c602090815260408083209387168352929052205460ff165b9392505050565b3360009081526004602052604090206008015460ff16610f845760405162461bcd60e51b8152600401610d5090613e03565b610f92600180546001019055565b6000610f9d60015490565b60408051610140810182528281523360208083019182528284018881526060840188905260006080850181905260a0850181905260c0850181905260e08501819052426101008601526001610120860181905287825260079093529490942083518155915190820180546001600160a01b0319166001600160a01b03909216919091179055915192935091829190600282019061103a9082613e7e565b506060820151600382019061104f9082613e7e565b506080820151600482015560a0820151600582015560c0820151600682015560e08201516007820155610100820151600880830191909155610120909201516009909101805460ff19169115159190911790553360008181526020928352604080822080546001810182559083529390912090920184905590517f285db98a4632176385795ddf0d2b67cef1a21f47eb2f5d06f786ab6b5147e200916110fb9185919088904290613f3e565b60405180910390a150505050565b6006602052600090815260409020805460018201805491929161112b90613dc9565b80601f016020809104026020016040519081016040528092919081815260200182805461115790613dc9565b80156111a45780601f10611179576101008083540402835291602001916111a4565b820191906000526020600020905b81548152906001019060200180831161118757829003601f168201915b5050505050908060020180546111b990613dc9565b80601f01602080910402602001604051908101604052809291908181526020018280546111e590613dc9565b80156112325780601f1061120757610100808354040283529160200191611232565b820191906000526020600020905b81548152906001019060200180831161121557829003601f168201915b50505050509080600301805461124790613dc9565b80601f016020809104026020016040519081016040528092919081815260200182805461127390613dc9565b80156112c05780601f10611295576101008083540402835291602001916112c0565b820191906000526020600020905b8154815290600101906020018083116112a357829003601f168201915b505050600484015460058501546006860154600787015460089097015495966001600160a01b0390931695919450925060ff1689565b6009602052816000526040600020818154811061131257600080fd5b600091825260209091206005909102018054600182015460028301546003840180549396509194506001600160a01b0316929161134e90613dc9565b80601f016020809104026020016040519081016040528092919081815260200182805461137a90613dc9565b80156113c75780601f1061139c576101008083540402835291602001916113c7565b820191906000526020600020905b8154815290600101906020018083116113aa57829003601f168201915b5050505050908060040154905085565b3360009081526004602052604090206008015460ff16156114305760405162461bcd60e51b81526020600482015260136024820152725573657220616c72656164792065786973747360681b6044820152606401610d50565b60006001600160a01b031660058460405161144b9190613f79565b908152604051908190036020019020546001600160a01b0316146114aa5760405162461bcd60e51b81526020600482015260166024820152752ab9b2b93730b6b29030b63932b0b23c903a30b5b2b760511b6044820152606401610d50565b6114b8600280546001019055565b60006114c360025490565b60408051610120810182528281526020808201888152828401889052606083018790523360808401819052600060a0850181905260c0850181905260e0850181905260016101008601819052918152600490935293909120825181559051939450909283928201906115359082613e7e565b506040820151600282019061154a9082613e7e565b506060820151600382019061155f9082613e7e565b5060808201516004820180546001600160a01b0319166001600160a01b0390921691909117905560a082015160058083019190915560c0830151600683015560e08301516007830155610100909201516008909101805460ff19169115159190911790556040513391906115d4908890613f79565b908152604080516020928190038301902080546001600160a01b0319166001600160a01b039490941693909317909255600084815260068252919091208251815590820151829190600182019061162b9082613e7e565b50604082015160028201906116409082613e7e565b50606082015160038201906116559082613e7e565b5060808201516004820180546001600160a01b0319166001600160a01b0390921691909117905560a0820151600582015560c0820151600682015560e08201516007820155610100909101516008909101805460ff19169115159190911790556040517f1c81d7053f5e6f875e0d7b584d3354071899b7dc927e6d7b48b58caa90cf3de8906116e990849088903390613f95565b60405180910390a15050505050565b600061170360015490565b905090565b6001600160a01b038116600090815260116020908152604080832080548251818502810185019093528083528493849392919083018282801561177457602002820191906000526020600020905b81546001600160a01b03168152600190910190602001808311611756575b5050505050905060005b81518110156117fe576001600160a01b038516600090815260126020526040812083519091908490849081106117b6576117b6613fc6565b60200260200101516001600160a01b03166001600160a01b0316815260200190815260200160002054836117ea9190613ff2565b9250806117f681614005565b91505061177e565b50909392505050565b6004602052600090815260409020805460018201805491929161112b90613dc9565b61183161322b565b61183b6000613285565b565b60008181526007602052604090206009015460ff1661186e5760405162461bcd60e51b8152600401610d509061401e565b3360009081526004602052604090206008015460ff166118a05760405162461bcd60e51b8152600401610d5090613e03565b336000908152600a6020908152604080832084845290915290205460ff16156119005760405162461bcd60e51b8152602060048201526012602482015271141bdcdd08185b1c9958591e481b1a5ad95960721b6044820152606401610d50565b336000908152600a602090815260408083208484528252808320805460ff191660011790556007909152812060040180549161193b83614005565b9091555050604080518281523360208201527fcf765d6f163c9b0d832e2a94f4c8e9bffd32a2c3ca5fdbb8cc67b5fe1441f41391015b60405180910390a150565b6008602052816000526040600020818154811061199857600080fd5b90600052602060002001600091509150505481565b600061170360025490565b601160205281600052604060002081815481106119d457600080fd5b6000918252602090912001546001600160a01b03169150829050565b6001600160a01b03811660009081526004602052604090206008015460ff16611a5b5760405162461bcd60e51b815260206004820152601d60248201527f5573657220746f20666f6c6c6f7720646f6573206e6f742065786973740000006044820152606401610d50565b3360009081526004602052604090206008015460ff16611ac85760405162461bcd60e51b815260206004820152602260248201527f596f75206e65656420746f2063726561746520612070726f66696c65206669726044820152611cdd60f21b6064820152608401610d50565b6001600160a01b0381163303611b195760405162461bcd60e51b815260206004820152601660248201527521b0b73737ba103337b63637bb903cb7bab939b2b63360511b6044820152606401610d50565b336000908152600c602090815260408083206001600160a01b038516845290915290205460ff1615611b8d5760405162461bcd60e51b815260206004820152601b60248201527f416c726561647920666f6c6c6f77696e672074686973207573657200000000006044820152606401610d50565b336000818152600c602090815260408083206001600160a01b038616808552908352818420805460ff19166001908117909155600d8452828520805480830182559086528486200180546001600160a01b03199081168817909155958552600e8452828520805491820181558552838520018054909516811790945592825260049052908120600501805491611c2283614005565b9091555050336000908152600460205260408120600601805491611c4583614005565b9091555050604080513381526001600160a01b03831660208201527f6178e95c138f06036cdc07a49ed6a3d23008969fa143baeceb037ebae22e8d149101611971565b60008281526007602052604090206009015460ff16611cb95760405162461bcd60e51b8152600401610d509061401e565b3360009081526004602052604090206008015460ff16611ceb5760405162461bcd60e51b8152600401610d5090613e03565b6040805160a081018252600084815260096020818152848320805480865282860189815233978701978852606087018981524260808901529484526001808301845592865292909420855160059095020193845590519083015592516002820180546001600160a01b0319166001600160a01b039092169190911790559151909182916003820190611d7d9082613e7e565b50608091909101516004909101556000838152600760205260408120600501805491611da883614005565b91905055507fceaa40d9d02173d6fae1f576cc1baff7cec35a842086153314079c405401a98883338442604051611de29493929190613f3e565b60405180910390a1505050565b6001600160a01b038083166000908152601060209081526040808320938516835292815290829020805483518184028101840190945280845260609392830182828015611e5b57602002820191906000526020600020905b815481526020019060010190808311611e47575b5050505050905092915050565b6000818152600f60205260409020600201546001600160a01b03163314611ee55760405162461bcd60e51b815260206004820152602b60248201527f4f6e6c79207468652072656365697665722063616e206d61726b206d6573736160448201526a19d95cc8185cc81c99585960aa1b6064820152608401610d50565b6000818152600f602052604090206005015460ff1615611f515760405162461bcd60e51b815260206004820152602160248201527f4d65737361676520697320616c7265616479206d61726b6564206173207265616044820152601960fa1b6064820152608401610d50565b6000818152600f6020908152604080832060058101805460ff19166001908117909155338552601284528285209101546001600160a01b031684529091528120805491611f9d8361404b565b9091555050604080518281523360208201527f0e717203d5558319840e69b0f2050a456ab8ee5ef0fa53dc522de9e70d1b1ba29101611971565b6001600160a01b0381166000908152600d6020908152604091829020805483518184028101840190945280845260609392830182828015610cc1576020028201919060005260206000209081546001600160a01b03168152600190910190602001808311610ca35750505050509050919050565b60008181526007602052604090206009015460ff1661207c5760405162461bcd60e51b8152600401610d509061401e565b600034116120d85760405162461bcd60e51b8152602060048201526024808201527f52657761726420616d6f756e74206d75737420626520677265617465722074686044820152630616e20360e41b6064820152608401610d50565b600081815260076020819052604082206001810154910180546001600160a01b0390921692349261210a908490613ff2565b90915550506001600160a01b0381166000908152600460205260408120600701805434929061213a908490613ff2565b90915550506040516000906001600160a01b0383169034908381818185875af1925050503d806000811461218a576040519150601f19603f3d011682016040523d82523d6000602084013e61218f565b606091505b50509050806121d55760405162461bcd60e51b815260206004820152601260248201527108cc2d2d8cac840e8de40e6cadcc8408aa8960731b6044820152606401610d50565b604080513381526001600160a01b03841660208201529081018490523460608201527f89bb0101abdf6d9aa2a9b9c1e54612b64d645cf6a01e45bbca53283e27732c8990608001611de2565b3360009081526004602052604090206008015460ff166122535760405162461bcd60e51b8152600401610d5090613e03565b6001600160a01b03811660009081526004602052604090206008015460ff166122b65760405162461bcd60e51b815260206004820152601560248201527414d95b99195c88191bd95cc81b9bdd08195e1a5cdd605a1b6044820152606401610d50565b3360009081526010602090815260408083206001600160a01b038516845282528083208054825181850281018501909352808352919290919083018282801561231e57602002820191906000526020600020905b81548152602001906001019080831161230a575b5050505050905060005b81518110156123e757600082828151811061234557612345613fc6565b6020908102919091018101516000818152600f90925260409091206002810154919250906001600160a01b0316331480156123855750600581015460ff16155b156123d25760058101805460ff19166001179055604080518381523360208201527f0e717203d5558319840e69b0f2050a456ab8ee5ef0fa53dc522de9e70d1b1ba2910160405180910390a15b505080806123df90614005565b915050612328565b50503360009081526012602090815260408083206001600160a01b0394909416835292905290812055565b606060096000838152602001908152602001600020805480602002602001604051908101604052809291908181526020016000905b828210156125405760008481526020908190206040805160a081018252600586029092018054835260018101549383019390935260028301546001600160a01b0316908201526003820180549192916060840191906124a590613dc9565b80601f01602080910402602001604051908101604052809291908181526020018280546124d190613dc9565b801561251e5780601f106124f35761010080835404028352916020019161251e565b820191906000526020600020905b81548152906001019060200180831161250157829003601f168201915b5050505050815260200160048201548152505081526020019060010190612447565b505050509050919050565b6001600160a01b0381166000908152600e6020908152604091829020805483518184028101840190945280845260609392830182828015610cc1576020028201919060005260206000209081546001600160a01b03168152600190910190602001808311610ca35750505050509050919050565b3360009081526004602052604090206008015460ff166126195760405162461bcd60e51b815260206004820152601560248201527414d95b99195c88191bd95cc81b9bdd08195e1a5cdd605a1b6044820152606401610d50565b6001600160a01b03821660009081526004602052604090206008015460ff166126845760405162461bcd60e51b815260206004820152601760248201527f526563656976657220646f6573206e6f742065786973740000000000000000006044820152606401610d50565b61268e3383610ef0565b6127005760405162461bcd60e51b815260206004820152603d60248201527f43616e6e6f7420636861742077697468207468697320757365722e204f6e652060448201527f6f6620796f75206d75737420666f6c6c6f7720746865206f746865722e0000006064820152608401610d50565b61270e600380546001019055565b600061271960035490565b6040805160c0810182528281523360208083019182526001600160a01b0388811684860190815260608501898152426080870152600060a08701819052888152600f909452959092208451815592516001840180546001600160a01b03199081169284169290921790559151600284018054909316911617905591519293509182919060038201906127ab9082613e7e565b506080820151600482015560a0909101516005909101805460ff19169115159190911790553360008181526010602081815260408084206001600160a01b038a16808652908352818520805460018181018355918752848720018990558186529383528185208686528352818520805494850181558552828520909301879055918352601281528183209383529290925290812080549161284b83614005565b919050555061285a33856132d5565b61286484336132d5565b604080518381523360208201526001600160a01b038616918101919091524260608201527f048fe7fb7f676173adbf5a90abbccd6ac9039b2daa74c81dfa961668b5b9305b906080016110fb565b600e60205281600052604060002081815481106119d457600080fd5b600d60205281600052604060002081815481106119d457600080fd5b6129446040518061012001604052806000815260200160608152602001606081526020016060815260200160006001600160a01b031681526020016000815260200160008152602001600081526020016000151581525090565b60006005836040516129569190613f79565b908152604051908190036020019020546001600160a01b03169050806129af5760405162461bcd60e51b815260206004820152600e60248201526d155cd95c881b9bdd08199bdd5b9960921b6044820152606401610d50565b6001600160a01b038116600090815260046020908152604091829020825161012081019093528054835260018101805491928401916129ed90613dc9565b80601f0160208091040260200160405190810160405280929190818152602001828054612a1990613dc9565b8015612a665780601f10612a3b57610100808354040283529160200191612a66565b820191906000526020600020905b815481529060010190602001808311612a4957829003601f168201915b50505050508152602001600282018054612a7f90613dc9565b80601f0160208091040260200160405190810160405280929190818152602001828054612aab90613dc9565b8015612af85780601f10612acd57610100808354040283529160200191612af8565b820191906000526020600020905b815481529060010190602001808311612adb57829003601f168201915b50505050508152602001600382018054612b1190613dc9565b80601f0160208091040260200160405190810160405280929190818152602001828054612b3d90613dc9565b8015612b8a5780601f10612b5f57610100808354040283529160200191612b8a565b820191906000526020600020905b815481529060010190602001808311612b6d57829003601f168201915b505050918352505060048201546001600160a01b0316602082015260058201546040820152600682015460608201526007820154608082015260089091015460ff16151560a0909101529392505050565b336000908152600c602090815260408083206001600160a01b038516845290915290205460ff16612c4e5760405162461bcd60e51b815260206004820152601760248201527f4e6f7420666f6c6c6f77696e67207468697320757365720000000000000000006044820152606401610d50565b336000908152600c602090815260408083206001600160a01b03851684529091528120805460ff191690555b6001600160a01b0382166000908152600d6020526040902054811015612dd2576001600160a01b0382166000908152600d60205260409020805433919083908110612cc757612cc7613fc6565b6000918252602090912001546001600160a01b031603612dc0576001600160a01b0382166000908152600d602052604090208054612d0790600190614062565b81548110612d1757612d17613fc6565b60009182526020808320909101546001600160a01b038581168452600d9092526040909220805491909216919083908110612d5457612d54613fc6565b600091825260208083209190910180546001600160a01b0319166001600160a01b039485161790559184168152600d90915260409020805480612d9957612d99614075565b600082815260209020810160001990810180546001600160a01b0319169055019055612dd2565b80612dca81614005565b915050612c7a565b5060005b336000908152600e6020526040902054811015612f1b57336000908152600e6020526040902080546001600160a01b038416919083908110612e1a57612e1a613fc6565b6000918252602090912001546001600160a01b031603612f0957336000908152600e602052604090208054612e5190600190614062565b81548110612e6157612e61613fc6565b6000918252602080832090910154338352600e909152604090912080546001600160a01b039092169183908110612e9a57612e9a613fc6565b600091825260208083209190910180546001600160a01b0319166001600160a01b039490941693909317909255338152600e90915260409020805480612ee257612ee2614075565b600082815260209020810160001990810180546001600160a01b0319169055019055612f1b565b80612f1381614005565b915050612dd6565b506001600160a01b0381166000908152600460205260408120600501805491612f438361404b565b9091555050336000908152600460205260408120600601805491612f668361404b565b9091555050604080513381526001600160a01b03831660208201527f25b48012798806863072289354ed0b3849b73152482d9c6694e5cbb35f38d5e39101611971565b612fb161322b565b6001600160a01b0381166130165760405162461bcd60e51b815260206004820152602660248201527f4f776e61626c653a206e6577206f776e657220697320746865207a65726f206160448201526564647265737360d01b6064820152608401610d50565b61301f81613285565b50565b60008181526007602052604090206009015460ff166130535760405162461bcd60e51b8152600401610d509061401e565b3360009081526004602052604090206008015460ff166130855760405162461bcd60e51b8152600401610d5090613e03565b336000908152600b6020908152604080832084845290915290205460ff16156130e65760405162461bcd60e51b8152602060048201526013602482015272141bdcdd08185b1c9958591e481cda185c9959606a1b6044820152606401610d50565b336000908152600b602090815260408083208484528252808320805460ff191660011790556007909152812060060180549161312183614005565b9091555050604080518281523360208201527f9ad6b9c25fe64910aa38489f778ed1d1334a3f784d3aeedc050948b26115f8699101611971565b60008181526007602052604090206009015460ff1661318c5760405162461bcd60e51b8152600401610d509061401e565b336000908152600a6020908152604080832084845290915290205460ff166131eb5760405162461bcd60e51b8152602060048201526012602482015271141bdcdd081b9bdd081b1a5ad959081e595d60721b6044820152606401610d50565b336000908152600a602090815260408083208484528252808320805460ff19169055600790915281206004018054916132238361404b565b919050555050565b6000546001600160a01b0316331461183b5760405162461bcd60e51b815260206004820181905260248201527f4f776e61626c653a2063616c6c6572206973206e6f7420746865206f776e65726044820152606401610d50565b600080546001600160a01b038381166001600160a01b0319831681178455604051919092169283917f8be0079c531659141344cd1fd0a4f28419497f9722a3daafe3b4186f6b6457e09190a35050565b6000805b6001600160a01b03841660009081526011602052604090205481101561346f576001600160a01b0384811660009081526011602052604090208054918516918390811061332857613328613fc6565b6000918252602090912001546001600160a01b03160361345d5760019150801561345857805b80156133ff576001600160a01b0385166000908152601160205260409020613377600183614062565b8154811061338757613387613fc6565b60009182526020808320909101546001600160a01b038881168452601190925260409092208054919092169190839081106133c4576133c4613fc6565b600091825260209091200180546001600160a01b0319166001600160a01b0392909216919091179055806133f78161404b565b91505061334e565b506001600160a01b0384166000908152601160205260408120805485929061342957613429613fc6565b9060005260206000200160006101000a8154816001600160a01b0302191690836001600160a01b031602179055505b61346f565b8061346781614005565b9150506132d9565b5080613656576001600160a01b03831660009081526011602052604081205490036134d357506001600160a01b0391821660009081526011602090815260408220805460018101825590835291200180546001600160a01b03191691909216179055565b6001600160a01b03831660009081526011602052604090205460328082101561353a576001600160a01b03851660009081526011602090815260408220805460018101825590835291200180546001600160a01b03191690558161353681614005565b9250505b6000613547600184614062565b90505b80156135fb576001600160a01b0386166000908152601160205260409020613573600183614062565b8154811061358357613583613fc6565b60009182526020808320909101546001600160a01b038981168452601190925260409092208054919092169190839081106135c0576135c0613fc6565b600091825260209091200180546001600160a01b0319166001600160a01b0392909216919091179055806135f38161404b565b91505061354a565b506001600160a01b0385166000908152601160205260408120805486929061362557613625613fc6565b9060005260206000200160006101000a8154816001600160a01b0302191690836001600160a01b0316021790555050505b505050565b80356001600160a01b038116811461367257600080fd5b919050565b60008060006060848603121561368c57600080fd5b6136958461365b565b92506136a36020850161365b565b9150604084013590509250925092565b6000602082840312156136c557600080fd5b5035919050565b60005b838110156136e75781810151838201526020016136cf565b50506000910152565b600081518084526137088160208601602086016136cc565b601f01601f19169290920160200192915050565b8a81526001600160a01b038a166020820152610140604082018190526000906137478382018c6136f0565b9050828103606084015261375b818b6136f0565b6080840199909952505060a081019590955260c085019390935260e0840191909152610100830152151561012090910152949350505050565b8681526001600160a01b0386811660208301528516604082015260c0606082018190526000906137c6908301866136f0565b60808301949094525090151560a090910152949350505050565b6000602082840312156137f257600080fd5b610f4b8261365b565b6020808252825182820181905260009190848201906040850190845b8181101561383c5783516001600160a01b031683529284019291840191600101613817565b50909695505050505050565b60208152815160208201526000602083015160018060a01b0380821660408501528060408601511660608501525050606083015160c0608084015261389060e08401826136f0565b9050608084015160a084015260a0840151151560c08401528091505092915050565b6020808252825182820181905260009190848201906040850190845b8181101561383c578351835292840192918401916001016138ce565b600080604083850312156138fd57600080fd5b6139068361365b565b946020939093013593505050565b6000806040838503121561392757600080fd5b6139308361365b565b915061393e6020840161365b565b90509250929050565b634e487b7160e01b600052604160045260246000fd5b600082601f83011261396e57600080fd5b813567ffffffffffffffff8082111561398957613989613947565b604051601f8301601f19908116603f011681019082821181831017156139b1576139b1613947565b816040528381528660208588010111156139ca57600080fd5b836020870160208301376000602085830101528094505050505092915050565b600080604083850312156139fd57600080fd5b823567ffffffffffffffff80821115613a1557600080fd5b613a218683870161395d565b93506020850135915080821115613a3757600080fd5b50613a448582860161395d565b9150509250929050565b60006101208b8352806020840152613a688184018c6136f0565b90508281036040840152613a7c818b6136f0565b90508281036060840152613a90818a6136f0565b6001600160a01b03989098166080840152505060a081019490945260c084019290925260e0830152151561010090910152949350505050565b60008060408385031215613adc57600080fd5b50508035926020909101359150565b85815284602082015260018060a01b038416604082015260a060608201526000613b1860a08301856136f0565b90508260808301529695505050505050565b600080600060608486031215613b3f57600080fd5b833567ffffffffffffffff80821115613b5757600080fd5b613b638783880161395d565b94506020860135915080821115613b7957600080fd5b613b858783880161395d565b93506040860135915080821115613b9b57600080fd5b50613ba88682870161395d565b9150509250925092565b600060208284031215613bc457600080fd5b813567ffffffffffffffff811115613bdb57600080fd5b613be78482850161395d565b949350505050565b60008060408385031215613c0257600080fd5b82359150602083013567ffffffffffffffff811115613c2057600080fd5b613a448582860161395d565b60006020808301818452808551808352604092508286019150828160051b87010184880160005b83811015613cc157888303603f190185528151805184528781015188850152868101516001600160a01b03168785015260608082015160a08287018190529190613c9f838801826136f0565b6080948501519790940196909652505094870194925090860190600101613c53565b509098975050505050505050565b60008060408385031215613ce257600080fd5b613ceb8361365b565b9150602083013567ffffffffffffffff811115613c2057600080fd5b602081528151602082015260006020830151610120806040850152613d306101408501836136f0565b91506040850151601f1980868503016060870152613d4e84836136f0565b9350606087015191508086850301608087015250613d6c83826136f0565b9250506080850151613d8960a08601826001600160a01b03169052565b5060a085015160c085015260c085015160e085015260e0850151610100818187015280870151915050613dbf8286018215159052565b5090949350505050565b600181811c90821680613ddd57607f821691505b602082108103613dfd57634e487b7160e01b600052602260045260246000fd5b50919050565b602080825260139082015272155cd95c88191bd95cc81b9bdd08195e1a5cdd606a1b604082015260600190565b601f82111561365657600081815260208120601f850160051c81016020861015613e575750805b601f850160051c820191505b81811015613e7657828155600101613e63565b505050505050565b815167ffffffffffffffff811115613e9857613e98613947565b613eac81613ea68454613dc9565b84613e30565b602080601f831160018114613ee15760008415613ec95750858301515b600019600386901b1c1916600185901b178555613e76565b600085815260208120601f198616915b82811015613f1057888601518255948401946001909101908401613ef1565b5085821015613f2e5787850151600019600388901b60f8161c191681555b5050505050600190811b01905550565b8481526001600160a01b0384166020820152608060408201819052600090613f68908301856136f0565b905082606083015295945050505050565b60008251613f8b8184602087016136cc565b9190910192915050565b838152606060208201526000613fae60608301856136f0565b905060018060a01b0383166040830152949350505050565b634e487b7160e01b600052603260045260246000fd5b634e487b7160e01b600052601160045260246000fd5b80820180821115610eea57610eea613fdc565b60006001820161401757614017613fdc565b5060010190565b602080825260139082015272141bdcdd08191bd95cc81b9bdd08195e1a5cdd606a1b604082015260600190565b60008161405a5761405a613fdc565b506000190190565b81810381811115610eea57610eea613fdc565b634e487b7160e01b600052603160045260246000fdfea264697066735822122071961702c9a2cfa33caf0197e0390bf114d1c3387cd37f4c88931bc34144fdf664736f6c63430008110033",
  "linkReferences": {},
  "deployedLinkReferences": {}
}